{
  "contractName": "Forum",
  "abi": [
    {
      "inputs": [],
      "payable": false,
      "stateMutability": "nonpayable",
      "type": "constructor"
    },
    {
      "constant": false,
      "inputs": [
        {
          "name": "postid",
          "type": "uint256"
        }
      ],
      "name": "upvote",
      "outputs": [],
      "payable": false,
      "stateMutability": "nonpayable",
      "type": "function"
    },
    {
      "constant": false,
      "inputs": [
        {
          "name": "postid",
          "type": "uint256"
        }
      ],
      "name": "unUpvote",
      "outputs": [],
      "payable": false,
      "stateMutability": "nonpayable",
      "type": "function"
    },
    {
      "constant": false,
      "inputs": [
        {
          "name": "postid",
          "type": "uint256"
        }
      ],
      "name": "downvote",
      "outputs": [],
      "payable": false,
      "stateMutability": "nonpayable",
      "type": "function"
    },
    {
      "constant": false,
      "inputs": [
        {
          "name": "postid",
          "type": "uint256"
        }
      ],
      "name": "unDownvote",
      "outputs": [],
      "payable": false,
      "stateMutability": "nonpayable",
      "type": "function"
    },
    {
      "constant": false,
      "inputs": [
        {
          "name": "content",
          "type": "string"
        }
      ],
      "name": "post",
      "outputs": [],
      "payable": false,
      "stateMutability": "nonpayable",
      "type": "function"
    },
    {
      "constant": false,
      "inputs": [
        {
          "name": "postid",
          "type": "uint256"
        },
        {
          "name": "content",
          "type": "string"
        }
      ],
      "name": "comment",
      "outputs": [],
      "payable": false,
      "stateMutability": "nonpayable",
      "type": "function"
    },
    {
      "constant": true,
      "inputs": [],
      "name": "getPostCount",
      "outputs": [
        {
          "name": "",
          "type": "uint256"
        }
      ],
      "payable": false,
      "stateMutability": "view",
      "type": "function"
    },
    {
      "constant": true,
      "inputs": [
        {
          "name": "i",
          "type": "uint256"
        }
      ],
      "name": "getPost",
      "outputs": [
        {
          "name": "",
          "type": "uint256"
        },
        {
          "name": "",
          "type": "address"
        },
        {
          "name": "",
          "type": "int256"
        },
        {
          "name": "",
          "type": "string"
        }
      ],
      "payable": false,
      "stateMutability": "view",
      "type": "function"
    },
    {
      "constant": true,
      "inputs": [
        {
          "name": "postid",
          "type": "uint256"
        }
      ],
      "name": "getCommentCount",
      "outputs": [
        {
          "name": "",
          "type": "uint256"
        }
      ],
      "payable": false,
      "stateMutability": "view",
      "type": "function"
    },
    {
      "constant": true,
      "inputs": [
        {
          "name": "postid",
          "type": "uint256"
        },
        {
          "name": "cmtid",
          "type": "uint256"
        }
      ],
      "name": "getComments",
      "outputs": [
        {
          "name": "",
          "type": "uint256"
        },
        {
          "name": "",
          "type": "address"
        },
        {
          "name": "",
          "type": "string"
        }
      ],
      "payable": false,
      "stateMutability": "view",
      "type": "function"
    }
  ],
  "bytecode": "0x608060405234801561001057600080fd5b50611171806100206000396000f3006080604052600436106100a4576000357c0100000000000000000000000000000000000000000000000000000000900463ffffffff16806301ddf070146100a95780630d4bfb4f146100d65780631805c5231461011757806340731c241461018a57806343becf9f146102715780634e2c61fe1461035b5780636f9afde1146103885780638ee93cf3146103b5578063bcc954071461041e578063f31fdad414610449575b600080fd5b3480156100b557600080fd5b506100d460048036038101908080359060200190929190505050610476565b005b3480156100e257600080fd5b50610101600480360381019080803590602001909291905050506105bf565b6040518082815260200191505060405180910390f35b34801561012357600080fd5b5061018860048036038101908080359060200190929190803590602001908201803590602001908080601f0160208091040260200160405190810160405280939291908181526020018383808284378201915050505050509192919290505050610601565b005b34801561019657600080fd5b506101b560048036038101908080359060200190929190505050610712565b604051808581526020018473ffffffffffffffffffffffffffffffffffffffff1673ffffffffffffffffffffffffffffffffffffffff16815260200183815260200180602001828103825283818151815260200191508051906020019080838360005b83811015610233578082015181840152602081019050610218565b50505050905090810190601f1680156102605780820380516001836020036101000a031916815260200191505b509550505050505060405180910390f35b34801561027d57600080fd5b506102a6600480360381019080803590602001909291908035906020019092919050505061082e565b604051808481526020018373ffffffffffffffffffffffffffffffffffffffff1673ffffffffffffffffffffffffffffffffffffffff16815260200180602001828103825283818151815260200191508051906020019080838360005b8381101561031e578082015181840152602081019050610303565b50505050905090810190601f16801561034b5780820380516001836020036101000a031916815260200191505b5094505050505060405180910390f35b34801561036757600080fd5b5061038660048036038101908080359060200190929190505050610994565b005b34801561039457600080fd5b506103b360048036038101908080359060200190929190505050610ad7565b005b3480156103c157600080fd5b5061041c600480360381019080803590602001908201803590602001908080601f0160208091040260200160405190810160405280939291908181526020018383808284378201915050505050509192919290505050610c18565b005b34801561042a57600080fd5b50610433610cc7565b6040518082815260200191505060405180910390f35b34801561045557600080fd5b5061047460048036038101908080359060200190929190505050610cd4565b005b808060028054905011151561048a57600080fd5b816001600281111561049857fe5b6000803373ffffffffffffffffffffffffffffffffffffffff1673ffffffffffffffffffffffffffffffffffffffff168152602001908152602001600020600001600083815260200190815260200160002060009054906101000a900460ff16600281111561050357fe5b1415151561051057600080fd5b61051983610e1c565b60028481548110151561052857fe5b90600052602060002090600502016002016000828254019250508190555060016000803373ffffffffffffffffffffffffffffffffffffffff1673ffffffffffffffffffffffffffffffffffffffff168152602001908152602001600020600001600085815260200190815260200160002060006101000a81548160ff021916908360028111156105b557fe5b0217905550505050565b600081806002805490501115156105d557600080fd5b6002838154811015156105e457fe5b906000526020600020906005020160040180549050915050919050565b6000828060028054905011151561061757600080fd5b60028481548110151561062657fe5b9060005260206000209060050201600401915081606060405190810160405280848054905081526020013373ffffffffffffffffffffffffffffffffffffffff16815260200185815250908060018154018082558091505090600182039060005260206000209060030201600090919290919091506000820151816000015560208201518160010160006101000a81548173ffffffffffffffffffffffffffffffffffffffff021916908373ffffffffffffffffffffffffffffffffffffffff1602179055506040820151816002019080519060200190610708929190610eae565b5050505050505050565b600080600060606000858060028054905011151561072f57600080fd5b60028781548110151561073e57fe5b9060005260206000209060050201915081600001548260010160009054906101000a900473ffffffffffffffffffffffffffffffffffffffff16836002015484600301808054600181600116156101000203166002900480601f0160208091040260200160405190810160405280929190818152602001828054600181600116156101000203166002900480156108165780601f106107eb57610100808354040283529160200191610816565b820191906000526020600020905b8154815290600101906020018083116107f957829003601f168201915b50505050509050955095509550955050509193509193565b60008060606000858060028054905011151561084957600080fd5b86868060028381548110151561085b57fe5b90600052602060002090600502016004018054905011151561087c57600080fd5b60028981548110151561088b57fe5b9060005260206000209060050201600401888154811015156108a957fe5b9060005260206000209060030201935083600001548460010160009054906101000a900473ffffffffffffffffffffffffffffffffffffffff1685600201808054600181600116156101000203166002900480601f01602080910402602001604051908101604052809291908181526020018280546001816001161561010002031660029004801561097c5780601f106109515761010080835404028352916020019161097c565b820191906000526020600020905b81548152906001019060200180831161095f57829003601f168201915b50505050509050965096509650505050509250925092565b80806002805490501115156109a857600080fd5b81600160028111156109b657fe5b6000803373ffffffffffffffffffffffffffffffffffffffff1673ffffffffffffffffffffffffffffffffffffffff168152602001908152602001600020600001600083815260200190815260200160002060009054906101000a900460ff166002811115610a2157fe5b141515610a2d57600080fd5b600283815481101515610a3c57fe5b9060005260206000209060050201600201600081548092919060019003919050555060008060003373ffffffffffffffffffffffffffffffffffffffff1673ffffffffffffffffffffffffffffffffffffffff168152602001908152602001600020600001600085815260200190815260200160002060006101000a81548160ff02191690836002811115610acd57fe5b0217905550505050565b8080600280549050111515610aeb57600080fd5b81600280811115610af857fe5b6000803373ffffffffffffffffffffffffffffffffffffffff1673ffffffffffffffffffffffffffffffffffffffff168152602001908152602001600020600001600083815260200190815260200160002060009054906101000a900460ff166002811115610b6357fe5b141515610b6f57600080fd5b600283815481101515610b7e57fe5b90600052602060002090600502016002016000815480929190600101919050555060008060003373ffffffffffffffffffffffffffffffffffffffff1673ffffffffffffffffffffffffffffffffffffffff168152602001908152602001600020600001600085815260200190815260200160002060006101000a81548160ff02191690836002811115610c0e57fe5b0217905550505050565b600060028054809190600101610c2e9190610f2e565b506002600160028054905003815481101515610c4657fe5b90600052602060002090600502019050338160010160006101000a81548173ffffffffffffffffffffffffffffffffffffffff021916908373ffffffffffffffffffffffffffffffffffffffff16021790555081816003019080519060200190610cb1929190610f60565b5060016002805490500381600001819055505050565b6000600280549050905090565b8080600280549050111515610ce857600080fd5b81600280811115610cf557fe5b6000803373ffffffffffffffffffffffffffffffffffffffff1673ffffffffffffffffffffffffffffffffffffffff168152602001908152602001600020600001600083815260200190815260200160002060009054906101000a900460ff166002811115610d6057fe5b14151515610d6d57600080fd5b610d7683610e1c565b600284815481101515610d8557fe5b90600052602060002090600502016002016000828254039250508190555060026000803373ffffffffffffffffffffffffffffffffffffffff1673ffffffffffffffffffffffffffffffffffffffff168152602001908152602001600020600001600085815260200190815260200160002060006101000a81548160ff02191690836002811115610e1257fe5b0217905550505050565b6000806002811115610e2a57fe5b6000803373ffffffffffffffffffffffffffffffffffffffff1673ffffffffffffffffffffffffffffffffffffffff168152602001908152602001600020600001600084815260200190815260200160002060009054906101000a900460ff166002811115610e9557fe5b1415610ea45760019050610ea9565b600290505b919050565b828054600181600116156101000203166002900490600052602060002090601f016020900481019282601f10610eef57805160ff1916838001178555610f1d565b82800160010185558215610f1d579182015b82811115610f1c578251825591602001919060010190610f01565b5b509050610f2a9190610fe0565b5090565b815481835581811115610f5b57600502816005028360005260206000209182019101610f5a9190611005565b5b505050565b828054600181600116156101000203166002900490600052602060002090601f016020900481019282601f10610fa157805160ff1916838001178555610fcf565b82800160010185558215610fcf579182015b82811115610fce578251825591602001919060010190610fb3565b5b509050610fdc9190610fe0565b5090565b61100291905b80821115610ffe576000816000905550600101610fe6565b5090565b90565b61107891905b80821115611074576000808201600090556001820160006101000a81549073ffffffffffffffffffffffffffffffffffffffff0219169055600282016000905560038201600061105b919061107b565b60048201600061106b91906110c3565b5060050161100b565b5090565b90565b50805460018160011615610100020316600290046000825580601f106110a157506110c0565b601f0160209004906000526020600020908101906110bf9190610fe0565b5b50565b50805460008255600302906000526020600020908101906110e491906110e7565b50565b61114291905b8082111561113e576000808201600090556001820160006101000a81549073ffffffffffffffffffffffffffffffffffffffff0219169055600282016000611135919061107b565b506003016110ed565b5090565b905600a165627a7a72305820d2c20e94880d5aef303dc07d2a2798a3f148903873d83035eb766bb5bd8efb6b0029",
  "source": "pragma solidity ^0.4.24;\n\ncontract Forum {\n    struct Post {\n        uint id;\n        address userid;\n        int votes;\n        string content;\n        Comment[] comments;\n    }\n\n    struct Comment {\n        uint id;\n        address userid;\n        string content;\n    }\n\n    enum VoteStatus {NONE, UP, DOWN}\n\n    struct User {\n        mapping(uint => VoteStatus) postVotes;\n    }\n\n    mapping(address => User) private users;\n    uint private userCount;\n    Post[] private posts;\n\n    constructor() public {\n\n    }\n\n    modifier postExists(uint postid) {\n        require(posts.length > postid); _;\n    }\n\n    modifier commentExists(uint postid, uint cmtid) {\n        require(posts[postid].comments.length > cmtid); _;\n    }\n\n    modifier notUpvoted(uint postid) {\n        require(users[msg.sender].postVotes[postid] != VoteStatus.UP); _;\n    }\n\n    modifier isUpvoted(uint postid) {\n        require(users[msg.sender].postVotes[postid] == VoteStatus.UP); _;\n    }\n\n    modifier notDownvoted(uint postid) {\n        require(users[msg.sender].postVotes[postid] != VoteStatus.DOWN); _;\n    }\n\n    modifier isDownvoted(uint postid) {\n        require(users[msg.sender].postVotes[postid] == VoteStatus.DOWN); _;\n    }\n\n    function voteDiff(uint postid) internal view returns(int) {\n        if (users[msg.sender].postVotes[postid] == VoteStatus.NONE) {\n            return 1;\n        } else {\n            return 2;\n        }\n    }\n\n    function upvote(uint postid) postExists(postid) notUpvoted(postid) public {\n        posts[postid].votes += voteDiff(postid);\n        users[msg.sender].postVotes[postid] = VoteStatus.UP;\n    }\n\n    function unUpvote(uint postid) postExists(postid) isUpvoted(postid) public {\n        posts[postid].votes--;\n        users[msg.sender].postVotes[postid] = VoteStatus.NONE;\n    }\n\n    function downvote(uint postid) postExists(postid) notDownvoted(postid) public {\n        posts[postid].votes -= voteDiff(postid);\n        users[msg.sender].postVotes[postid] = VoteStatus.DOWN;\n    }\n\n    function unDownvote(uint postid) postExists(postid) isDownvoted(postid) public {\n        posts[postid].votes++;\n        users[msg.sender].postVotes[postid] = VoteStatus.NONE;\n    }\n\n    function post(string content) public {\n        posts.length++;\n        Post storage newPost = posts[posts.length - 1];\n        newPost.userid = msg.sender;\n        newPost.content = content;\n        newPost.id = posts.length - 1;\n        //upvote(posts.length - 1);\n    }\n\n    function comment(uint postid, string content) postExists(postid) public {\n        Comment[] storage comments = posts[postid].comments;\n        comments.push(Comment({id: comments.length, userid: msg.sender, content: content}));\n    }\n\n    function getPostCount() public view returns(uint) {\n        return posts.length;\n    }\n\n    function getPost(uint i) postExists(i) public view returns(uint, address, int, string) {\n        Post storage p = posts[i];\n        return (p.id, p.userid, p.votes, p.content);\n    }\n\n    function getCommentCount(uint postid) postExists(postid) public view returns(uint) {\n        return posts[postid].comments.length;\n    }\n\n    function getComments(uint postid, uint cmtid) postExists(postid) commentExists(postid, cmtid)\n    public view returns(uint, address, string) {\n        Comment storage cmt = posts[postid].comments[cmtid];\n        return (cmt.id, cmt.userid, cmt.content);\n    }\n}\n",
  "sourcePath": "/home/yuhan/projects/ethreddit/contracts/Forum.sol",
  "compiler": {
    "name": "solc",
    "version": "0.4.24+commit.e67f0147.Emscripten.clang"
  },
  "schemaVersion": "2.0.1",
  "updatedAt": "2018-09-15T21:06:48.192Z"
}