{
  "contractName": "Forum",
  "abi": [
    {
      "inputs": [],
      "payable": false,
      "stateMutability": "nonpayable",
      "type": "constructor"
    },
    {
      "constant": false,
      "inputs": [],
      "name": "register",
      "outputs": [],
      "payable": false,
      "stateMutability": "nonpayable",
      "type": "function"
    },
    {
      "constant": false,
      "inputs": [
        {
          "name": "postid",
          "type": "uint256"
        }
      ],
      "name": "upvote",
      "outputs": [],
      "payable": false,
      "stateMutability": "nonpayable",
      "type": "function"
    },
    {
      "constant": false,
      "inputs": [
        {
          "name": "postid",
          "type": "uint256"
        }
      ],
      "name": "unUpvote",
      "outputs": [],
      "payable": false,
      "stateMutability": "nonpayable",
      "type": "function"
    },
    {
      "constant": false,
      "inputs": [
        {
          "name": "postid",
          "type": "uint256"
        }
      ],
      "name": "downvote",
      "outputs": [],
      "payable": false,
      "stateMutability": "nonpayable",
      "type": "function"
    },
    {
      "constant": false,
      "inputs": [
        {
          "name": "postid",
          "type": "uint256"
        }
      ],
      "name": "unDownvote",
      "outputs": [],
      "payable": false,
      "stateMutability": "nonpayable",
      "type": "function"
    },
    {
      "constant": false,
      "inputs": [
        {
          "name": "content",
          "type": "string"
        }
      ],
      "name": "post",
      "outputs": [],
      "payable": false,
      "stateMutability": "nonpayable",
      "type": "function"
    },
    {
      "constant": false,
      "inputs": [
        {
          "name": "postid",
          "type": "uint256"
        },
        {
          "name": "content",
          "type": "string"
        }
      ],
      "name": "comment",
      "outputs": [],
      "payable": false,
      "stateMutability": "nonpayable",
      "type": "function"
    },
    {
      "constant": true,
      "inputs": [],
      "name": "getPostCount",
      "outputs": [
        {
          "name": "",
          "type": "uint256"
        }
      ],
      "payable": false,
      "stateMutability": "view",
      "type": "function"
    },
    {
      "constant": true,
      "inputs": [
        {
          "name": "i",
          "type": "uint256"
        }
      ],
      "name": "getPost",
      "outputs": [
        {
          "name": "",
          "type": "uint256"
        },
        {
          "name": "",
          "type": "address"
        },
        {
          "name": "",
          "type": "int256"
        },
        {
          "name": "",
          "type": "string"
        }
      ],
      "payable": false,
      "stateMutability": "view",
      "type": "function"
    },
    {
      "constant": true,
      "inputs": [
        {
          "name": "postid",
          "type": "uint256"
        }
      ],
      "name": "getCommentCount",
      "outputs": [
        {
          "name": "",
          "type": "uint256"
        }
      ],
      "payable": false,
      "stateMutability": "view",
      "type": "function"
    },
    {
      "constant": true,
      "inputs": [
        {
          "name": "postid",
          "type": "uint256"
        },
        {
          "name": "cmtid",
          "type": "uint256"
        }
      ],
      "name": "getComments",
      "outputs": [
        {
          "name": "",
          "type": "uint256"
        },
        {
          "name": "",
          "type": "address"
        },
        {
          "name": "",
          "type": "string"
        }
      ],
      "payable": false,
      "stateMutability": "view",
      "type": "function"
    }
  ],
  "bytecode": "0x608060405234801561001057600080fd5b50611619806100206000396000f3006080604052600436106100af576000357c0100000000000000000000000000000000000000000000000000000000900463ffffffff16806301ddf070146100b45780630d4bfb4f146100e15780631805c523146101225780631aa3a0081461019557806340731c24146101ac57806343becf9f146102935780634e2c61fe1461037d5780636f9afde1146103aa5780638ee93cf3146103d7578063bcc9540714610440578063f31fdad41461046b575b600080fd5b3480156100c057600080fd5b506100df60048036038101908080359060200190929190505050610498565b005b3480156100ed57600080fd5b5061010c60048036038101908080359060200190929190505050610668565b6040518082815260200191505060405180910390f35b34801561012e57600080fd5b5061019360048036038101908080359060200190929190803590602001908201803590602001908080601f01602080910402602001604051908101604052809392919081815260200183838082843782019150505050505091929192905050506106aa565b005b3480156101a157600080fd5b506101aa610841565b005b3480156101b857600080fd5b506101d76004803603810190808035906020019092919050505061098e565b604051808581526020018473ffffffffffffffffffffffffffffffffffffffff1673ffffffffffffffffffffffffffffffffffffffff16815260200183815260200180602001828103825283818151815260200191508051906020019080838360005b8381101561025557808201518184015260208101905061023a565b50505050905090810190601f1680156102825780820380516001836020036101000a031916815260200191505b509550505050505060405180910390f35b34801561029f57600080fd5b506102c86004803603810190808035906020019092919080359060200190929190505050610aaa565b604051808481526020018373ffffffffffffffffffffffffffffffffffffffff1673ffffffffffffffffffffffffffffffffffffffff16815260200180602001828103825283818151815260200191508051906020019080838360005b83811015610340578082015181840152602081019050610325565b50505050905090810190601f16801561036d5780820380516001836020036101000a031916815260200191505b5094505050505060405180910390f35b34801561038957600080fd5b506103a860048036038101908080359060200190929190505050610c10565b005b3480156103b657600080fd5b506103d560048036038101908080359060200190929190505050610dda565b005b3480156103e357600080fd5b5061043e600480360381019080803590602001908201803590602001908080601f0160208091040260200160405190810160405280939291908181526020018383808284378201915050505050509192919290505050610fa2565b005b34801561044c57600080fd5b506104556110e8565b6040518082815260200191505060405180910390f35b34801561047757600080fd5b50610496600480360381019080803590602001909291905050506110f5565b005b60008060003373ffffffffffffffffffffffffffffffffffffffff1673ffffffffffffffffffffffffffffffffffffffff16815260200190815260200160002060000160009054906101000a900473ffffffffffffffffffffffffffffffffffffffff1673ffffffffffffffffffffffffffffffffffffffff161415151561051f57600080fd5b808060028054905011151561053357600080fd5b816001600281111561054157fe5b6000803373ffffffffffffffffffffffffffffffffffffffff1673ffffffffffffffffffffffffffffffffffffffff168152602001908152602001600020600101600083815260200190815260200160002060009054906101000a900460ff1660028111156105ac57fe5b141515156105b957600080fd5b6105c2836112c4565b6002848154811015156105d157fe5b90600052602060002090600502016002016000828254019250508190555060016000803373ffffffffffffffffffffffffffffffffffffffff1673ffffffffffffffffffffffffffffffffffffffff168152602001908152602001600020600101600085815260200190815260200160002060006101000a81548160ff0219169083600281111561065e57fe5b0217905550505050565b6000818060028054905011151561067e57600080fd5b60028381548110151561068d57fe5b906000526020600020906005020160040180549050915050919050565b6000806000803373ffffffffffffffffffffffffffffffffffffffff1673ffffffffffffffffffffffffffffffffffffffff16815260200190815260200160002060000160009054906101000a900473ffffffffffffffffffffffffffffffffffffffff1673ffffffffffffffffffffffffffffffffffffffff161415151561073257600080fd5b828060028054905011151561074657600080fd5b60028481548110151561075557fe5b9060005260206000209060050201600401915081606060405190810160405280848054905081526020013373ffffffffffffffffffffffffffffffffffffffff16815260200185815250908060018154018082558091505090600182039060005260206000209060030201600090919290919091506000820151816000015560208201518160010160006101000a81548173ffffffffffffffffffffffffffffffffffffffff021916908373ffffffffffffffffffffffffffffffffffffffff1602179055506040820151816002019080519060200190610837929190611356565b5050505050505050565b6000806000803373ffffffffffffffffffffffffffffffffffffffff1673ffffffffffffffffffffffffffffffffffffffff16815260200190815260200160002060000160009054906101000a900473ffffffffffffffffffffffffffffffffffffffff1673ffffffffffffffffffffffffffffffffffffffff161415156108c857600080fd5b3390506020604051908101604052808273ffffffffffffffffffffffffffffffffffffffff168152506000808373ffffffffffffffffffffffffffffffffffffffff1673ffffffffffffffffffffffffffffffffffffffff16815260200190815260200160002060008201518160000160006101000a81548173ffffffffffffffffffffffffffffffffffffffff021916908373ffffffffffffffffffffffffffffffffffffffff16021790555090505060016000815480929190600101919050555050565b60008060006060600085806002805490501115156109ab57600080fd5b6002878154811015156109ba57fe5b9060005260206000209060050201915081600001548260010160009054906101000a900473ffffffffffffffffffffffffffffffffffffffff16836002015484600301808054600181600116156101000203166002900480601f016020809104026020016040519081016040528092919081815260200182805460018160011615610100020316600290048015610a925780601f10610a6757610100808354040283529160200191610a92565b820191906000526020600020905b815481529060010190602001808311610a7557829003601f168201915b50505050509050955095509550955050509193509193565b600080606060008580600280549050111515610ac557600080fd5b868680600283815481101515610ad757fe5b906000526020600020906005020160040180549050111515610af857600080fd5b600289815481101515610b0757fe5b906000526020600020906005020160040188815481101515610b2557fe5b9060005260206000209060030201935083600001548460010160009054906101000a900473ffffffffffffffffffffffffffffffffffffffff1685600201808054600181600116156101000203166002900480601f016020809104026020016040519081016040528092919081815260200182805460018160011615610100020316600290048015610bf85780601f10610bcd57610100808354040283529160200191610bf8565b820191906000526020600020905b815481529060010190602001808311610bdb57829003601f168201915b50505050509050965096509650505050509250925092565b60008060003373ffffffffffffffffffffffffffffffffffffffff1673ffffffffffffffffffffffffffffffffffffffff16815260200190815260200160002060000160009054906101000a900473ffffffffffffffffffffffffffffffffffffffff1673ffffffffffffffffffffffffffffffffffffffff1614151515610c9757600080fd5b8080600280549050111515610cab57600080fd5b8160016002811115610cb957fe5b6000803373ffffffffffffffffffffffffffffffffffffffff1673ffffffffffffffffffffffffffffffffffffffff168152602001908152602001600020600101600083815260200190815260200160002060009054906101000a900460ff166002811115610d2457fe5b141515610d3057600080fd5b600283815481101515610d3f57fe5b9060005260206000209060050201600201600081548092919060019003919050555060008060003373ffffffffffffffffffffffffffffffffffffffff1673ffffffffffffffffffffffffffffffffffffffff168152602001908152602001600020600101600085815260200190815260200160002060006101000a81548160ff02191690836002811115610dd057fe5b0217905550505050565b60008060003373ffffffffffffffffffffffffffffffffffffffff1673ffffffffffffffffffffffffffffffffffffffff16815260200190815260200160002060000160009054906101000a900473ffffffffffffffffffffffffffffffffffffffff1673ffffffffffffffffffffffffffffffffffffffff1614151515610e6157600080fd5b8080600280549050111515610e7557600080fd5b81600280811115610e8257fe5b6000803373ffffffffffffffffffffffffffffffffffffffff1673ffffffffffffffffffffffffffffffffffffffff168152602001908152602001600020600101600083815260200190815260200160002060009054906101000a900460ff166002811115610eed57fe5b141515610ef957600080fd5b600283815481101515610f0857fe5b90600052602060002090600502016002016000815480929190600101919050555060008060003373ffffffffffffffffffffffffffffffffffffffff1673ffffffffffffffffffffffffffffffffffffffff168152602001908152602001600020600101600085815260200190815260200160002060006101000a81548160ff02191690836002811115610f9857fe5b0217905550505050565b6000806000803373ffffffffffffffffffffffffffffffffffffffff1673ffffffffffffffffffffffffffffffffffffffff16815260200190815260200160002060000160009054906101000a900473ffffffffffffffffffffffffffffffffffffffff1673ffffffffffffffffffffffffffffffffffffffff161415151561102a57600080fd5b6002805480919060010161103e91906113d6565b50600260016002805490500381548110151561105657fe5b90600052602060002090600502019050338160010160006101000a81548173ffffffffffffffffffffffffffffffffffffffff021916908373ffffffffffffffffffffffffffffffffffffffff160217905550818160030190805190602001906110c1929190611408565b5060016002805490500381600001819055506110e4600160028054905003610498565b5050565b6000600280549050905090565b60008060003373ffffffffffffffffffffffffffffffffffffffff1673ffffffffffffffffffffffffffffffffffffffff16815260200190815260200160002060000160009054906101000a900473ffffffffffffffffffffffffffffffffffffffff1673ffffffffffffffffffffffffffffffffffffffff161415151561117c57600080fd5b808060028054905011151561119057600080fd5b8160028081111561119d57fe5b6000803373ffffffffffffffffffffffffffffffffffffffff1673ffffffffffffffffffffffffffffffffffffffff168152602001908152602001600020600101600083815260200190815260200160002060009054906101000a900460ff16600281111561120857fe5b1415151561121557600080fd5b61121e836112c4565b60028481548110151561122d57fe5b90600052602060002090600502016002016000828254039250508190555060026000803373ffffffffffffffffffffffffffffffffffffffff1673ffffffffffffffffffffffffffffffffffffffff168152602001908152602001600020600101600085815260200190815260200160002060006101000a81548160ff021916908360028111156112ba57fe5b0217905550505050565b60008060028111156112d257fe5b6000803373ffffffffffffffffffffffffffffffffffffffff1673ffffffffffffffffffffffffffffffffffffffff168152602001908152602001600020600101600084815260200190815260200160002060009054906101000a900460ff16600281111561133d57fe5b141561134c5760019050611351565b600290505b919050565b828054600181600116156101000203166002900490600052602060002090601f016020900481019282601f1061139757805160ff19168380011785556113c5565b828001600101855582156113c5579182015b828111156113c45782518255916020019190600101906113a9565b5b5090506113d29190611488565b5090565b8154818355818111156114035760050281600502836000526020600020918201910161140291906114ad565b5b505050565b828054600181600116156101000203166002900490600052602060002090601f016020900481019282601f1061144957805160ff1916838001178555611477565b82800160010185558215611477579182015b8281111561147657825182559160200191906001019061145b565b5b5090506114849190611488565b5090565b6114aa91905b808211156114a657600081600090555060010161148e565b5090565b90565b61152091905b8082111561151c576000808201600090556001820160006101000a81549073ffffffffffffffffffffffffffffffffffffffff021916905560028201600090556003820160006115039190611523565b600482016000611513919061156b565b506005016114b3565b5090565b90565b50805460018160011615610100020316600290046000825580601f106115495750611568565b601f0160209004906000526020600020908101906115679190611488565b5b50565b508054600082556003029060005260206000209081019061158c919061158f565b50565b6115ea91905b808211156115e6576000808201600090556001820160006101000a81549073ffffffffffffffffffffffffffffffffffffffff02191690556002820160006115dd9190611523565b50600301611595565b5090565b905600a165627a7a7230582000b8d160e7c6b52da38cdaba5f4a2ddf561cac3090b56a5c2fd3e342e3d0da720029",
  "source": "pragma solidity ^0.4.24;\n\ncontract Forum {\n    struct Post {\n        uint id;\n        address userid;\n        int votes;\n        string content;\n        Comment[] comments;\n    }\n\n    struct Comment {\n        uint id;\n        address userid;\n        string content;\n    }\n\n    enum VoteStatus {NONE, UP, DOWN}\n\n    struct User {\n        address addr;\n        mapping(uint => VoteStatus) postVotes;\n    }\n\n    mapping(address => User) private users;\n    uint private userCount;\n    Post[] private posts;\n\n    constructor() public {\n\n    }\n\n    modifier userExists() {\n        require(users[msg.sender].addr != 0); _;\n    }\n\n    modifier userNotExist() {\n        require(users[msg.sender].addr == 0); _;\n    }\n\n    modifier postExists(uint postid) {\n        require(posts.length > postid); _;\n    }\n\n    modifier commentExists(uint postid, uint cmtid) {\n        require(posts[postid].comments.length > cmtid); _;\n    }\n\n    modifier notUpvoted(uint postid) {\n        require(users[msg.sender].postVotes[postid] != VoteStatus.UP); _;\n    }\n\n    modifier isUpvoted(uint postid) {\n        require(users[msg.sender].postVotes[postid] == VoteStatus.UP); _;\n    }\n\n    modifier notDownvoted(uint postid) {\n        require(users[msg.sender].postVotes[postid] != VoteStatus.DOWN); _;\n    }\n\n    modifier isDownvoted(uint postid) {\n        require(users[msg.sender].postVotes[postid] == VoteStatus.DOWN); _;\n    }\n\n    function register() userNotExist public {\n        address addr = msg.sender;\n        users[addr] = User({addr: addr});\n        userCount++;\n    }\n\n    function voteDiff(uint postid) internal view returns(int) {\n        if (users[msg.sender].postVotes[postid] == VoteStatus.NONE) {\n            return 1;\n        } else {\n            return 2;\n        }\n    }\n\n    function upvote(uint postid) userExists postExists(postid) notUpvoted(postid) public {\n        posts[postid].votes += voteDiff(postid);\n        users[msg.sender].postVotes[postid] = VoteStatus.UP;\n    }\n\n    function unUpvote(uint postid) userExists postExists(postid) isUpvoted(postid) public {\n        posts[postid].votes--;\n        users[msg.sender].postVotes[postid] = VoteStatus.NONE;\n    }\n\n    function downvote(uint postid) userExists postExists(postid) notDownvoted(postid) public {\n        posts[postid].votes -= voteDiff(postid);\n        users[msg.sender].postVotes[postid] = VoteStatus.DOWN;\n    }\n\n    function unDownvote(uint postid) userExists postExists(postid) isDownvoted(postid) public {\n        posts[postid].votes++;\n        users[msg.sender].postVotes[postid] = VoteStatus.NONE;\n    }\n\n    function post(string content) userExists public {\n        posts.length++;\n        Post storage newPost = posts[posts.length - 1];\n        newPost.userid = msg.sender;\n        newPost.content = content;\n        newPost.id = posts.length - 1;\n        upvote(posts.length - 1);\n    }\n\n    function comment(uint postid, string content) userExists postExists(postid) public {\n        Comment[] storage comments = posts[postid].comments;\n        comments.push(Comment({id: comments.length, userid: msg.sender, content: content}));\n    }\n\n    function getPostCount() public view returns(uint) {\n        return posts.length;\n    }\n\n    function getPost(uint i) postExists(i) public view returns(uint, address, int, string) {\n        Post storage p = posts[i];\n        return (p.id, p.userid, p.votes, p.content);\n    }\n\n    function getCommentCount(uint postid) postExists(postid) public view returns(uint) {\n        return posts[postid].comments.length;\n    }\n\n    function getComments(uint postid, uint cmtid) postExists(postid) commentExists(postid, cmtid)\n    public view returns(uint, address, string) {\n        Comment storage cmt = posts[postid].comments[cmtid];\n        return (cmt.id, cmt.userid, cmt.content);\n    }\n}\n",
  "sourcePath": "/home/yuhan/projects/ethreddit/contracts/Forum.sol",
  "compiler": {
    "name": "solc",
    "version": "0.4.24+commit.e67f0147.Emscripten.clang"
  },
  "schemaVersion": "2.0.1",
  "updatedAt": "2018-09-15T13:10:21.631Z"
}